:100000000C9434000C943E000C943E000C943E0082
:100010000C943E000C943E000C943E000C943E0068
:100020000C943E000C943E000C943E000C943E0058
:100030000C943E000C943E000C943E000C943E0048
:100040000C943E000C943E000C943E000C943E0038
:100050000C943E000C943E000C943E000C943E0028
:100060000C943E000C943E0011241FBECFEFD8E04C
:10007000DEBFCDBF0E9440000C945D000C940000D8
:10008000229A2A9814BC8CEE86BD85E085BDA8997D
:1000900011C094E02FE73AE186E0215030408040E3
:1000A000E1F700C0000016BCA89A85B1892785B980
:0E00B000A89BF0CF80E090E00895F894FFCF79
:00000001FF
