S0120000444132543443636F64652E73726563F5
S11300000C9434000C943E000C943E000C943E007E
S11300100C943E000C943E000C943E000C943E0064
S11300200C943E000C943E000C943E000C943E0054
S11300300C943E000C943E000C943E000C943E0044
S11300400C944B000C943E000C943E000C943E0027
S11300500C943E000C943E000C943E000C943E0024
S11300600C943E000C943E0011241FBECFEFD8E048
S1130070DEBFCDBF0E9440000C9469000C940000C8
S1130080229A85B5856085BDEEE6F0E080818160C9
S113009080837894FFCF1F920F920FB60F92112492
S11300A02F938F939F932FE58FE495E02150804009
S11300B09040E1F700C000002A9B02C02A9801C0CA
S11300C02A9A9F918F912F910F900FBE0F901F909E
S10900D01895F894FFCF1F
S9030000FC
