S0120000444132543543636F64652E73726563F4
S11300000C9434000C9467000C9446000C94460045
S11300100C9446000C9446000C9446000C94460044
S11300200C9446000C9446000C9446000C94460034
S11300300C9446000C9446000C9446000C94460024
S11300400C9446000C9446000C9446000C94460014
S11300500C9446000C9446000C9446000C94460004
S11300600C9446000C94460011241FBECFEFD8E038
S1130070DEBFCDBF21E0A0E0B1E001C01D92A03001
S1130080B207E1F70E9448000C9481000C94000030
S1130090229A2A985A9AE9E6F0E080818260808365
S11300A0E89A78942A982FE78AE196E021508040D4
S11300B09040E1F700C000002A9A2FE78AE196E019
S11300C0215080409040E1F700C00000EBCF1F9228
S11300D00F920FB60F9211242F938F939F932A9A06
S11300E02FEF86E191E1215080409040E1F700C07C
S11300F000009F918F912F910F900FBE0F901F9032
S10901001895F894FFCFEE
S9030000FC
