S0120000444132543143636F64652E73726563F8
S11300000C9434000C943E000C943E000C943E007E
S11300100C943E000C943E000C943E000C943E0064
S11300200C943E000C943E000C943E000C943E0054
S11300300C943E000C943E000C943E000C943E0044
S11300400C943E000C943E000C943E000C943E0034
S11300500C943E000C943E000C943E000C943E0024
S11300600C943E000C943E0011241FBECFEFD8E048
S1130070DEBFCDBF0E9440000C9457000C940000DA
S1130080229A2A982A9A2FE78AE196E02150804002
S11300909040E1F700C000002A982FE78AE196E03B
S11300A0215080409040E1F700C00000EBCFF8946D
S10500B0FFCF7C
S9030000FC
