S0120000444132543243636F64652E73726563F7
S11300000C9434000C943E000C943E000C943E007E
S11300100C943E000C943E000C943E000C943E0064
S11300200C943E000C943E000C943E000C943E0054
S11300300C943E000C943E000C943E000C943E0044
S11300400C943E000C943E000C943E000C943E0034
S11300500C943E000C943E000C943E000C943E0024
S11300600C943E000C943E0011241FBECFEFD8E048
S1130070DEBFCDBF0E945C000C948B000C9400008A
S11300804A9910C020E030E02F5F3F4F8FE097E2A5
S11300900197F1F700C000004A9906C02A303105E3
S11300A099F702C020E030E081E090E02A30310589
S11300B011F080E090E00895229A2A985A9A0E94BA
S11300C04000892B31F12A9A2FEF81EE94E02150E0
S11300D080409040E1F700C000002FEF81EE94E0F3
S11300E0215080409040E1F700C000002FEF81EEE6
S11300F094E0215080409040E1F700C000002FEFD1
S113010081EE94E0215080409040E1F700C000006F
S10D0110D6CF2A98D4CFF894FFCF7D
S9030000FC
